:100000009AEF00F0340E006E002EFED700D00000F4
:1000100082B80ED06A0E006E002EFED7000082A8B5
:1000200007D0420E006E002EFED70000010E016EBA
:100030001200EA6A1A0EE96EEF500EE0050E016E2C
:10004000006A002EFED7012EFBD72E0E006E002E6A
:10005000FED700D0EF2EF2D733EF00F094988298BD
:10006000120E1A6EE6D78288270E006E002EFED77B
:1000700000D09488B9EF00F01C6A10A000D01A6A72
:100080001A50070840E31B6A82B809D01B2A1B508C
:10009000640802E2108003D000D000D0F5D7270E0C
:1000A000006E002EFED700D082B811D0070ED88087
:1000B0001A541D6E010E006E1D50016E04E0D890A2
:1000C0000036012EFCD70050FF0A1C161AD0070E6E
:1000D000D8801A541D6E010E006E1D50016E04E092
:1000E000D8900036012EFCD700501C1282A809D0EF
:1000F0001B2A1B50640802E2108003D000D000D0FD
:10010000F5D71A2ABDD71CC001F012001B50016A96
:100110001A5C03E21AC000F00CD0006A080E1C6ED4
:100120001A3600361B50005CD8B0006E01361C2E0B
:10013000F7D71200F86AD09E116A126A136A146A1D
:10014000C150C00B0F09C16E070EB46E046A056A78
:10015000600ED36E400E9B6ED350000E926E936E67
:1001600096909692969496964DDF926A0F0E896EAF
:1001700075D748DF015237E07FDF01C017F07CDF21
:1001800001C018F079DF01C015F076DF01C016F06C
:1001900073DF01C019F01850172415241624195CB8
:1001A00022E117C01AF00A0E1B6EB0DF01C014F076
:1001B00017C01AF00A0E1B6EA9DF00C013F015C09D
:1001C0001AF00A0E1B6EA2DF01C012F015C01AF061
:1001D0000A0E1B6E9BDF00C011F0956A14C08CFFE5
:0A01E000926A010E896EC0D7030079
:020000040030CA
:0E0000000002181E000581000FC00FE00F4027
:00000001FF
;PIC18F4620
;CRC=01C2  CREATED="31-may.-18 13:16"
